:100000006F70106E1300000013000000130000005A
:100010001300000013000000130000001300000094
:100020001300000013000000130000001300000084
:08003000130000007300100032
:100038000000000000000000EE7D0000FE7D0000D2
:1000480000000000267E0000000000000000000004
:10005800287E00002A7E000000000000000000004A
:100068002C7E0000000000002E7E00000000000032
:10007800307E0000327E0000347E0000367E0000B4
:10008800387E00003A7E00007E740000F2740000A2
:1000980066750000DA7500004E760000467E0000A6
:1000A800487E00004A7E00004C7E00004E7E000024
:1000B800507E0000527E0000547E0000567E0000F4
:1000C800587E00005A7E00005C7E0000C276000068
:1000D800607E000086780000647E0000667E000076
:1000E800067900007E790000FE7900006E7E00002F
:1000F800707E0000727E0000747E0000767E000034
:10010800787E0000CE6F000052700000D6700000AC
:100118009A770000827E0000847E0000867E0000C0
:10012800767C00008A7E00008C7E00008E7E0000B7
:10013800907E0000927E00007E7A0000967E00008D
:100148005A710000DE7100000A7B0000F67B000097
:10015800A07E0000A27E0000A47E0000A67E000013
:10016800A87E0000AA7E0000AC7E0000AE7E0000E3
:10017800B07E0000B27E0000B47E0000E0A0000067
:10018800B87E0000BA7E0000EE73000060720000C6
:10019800E47200006E730000C47E0000F67C00006C
:1001A800C87E0000CA7E0000CC7E0000767D00007C
:1001B800D07E0000D27E0000D47E0000D67E0000F3
:1001C800D87E0000DA7E0000DC7E0000DE7E0000C3
:1001D8000000000000000000000000000000000017
:1001E8000000000000000000000000000000000007
:0801F8000000000000000000FF
:100200003D432A876373C3029377F700BDEFADE5E3
:10021000937606FF3D8ABA960CC34CC30CC74CC7F5
:100220004107E36BD7FE11E28280B306C3408A0622
:100230009702000096966780A6002307B700A306E2
:10024000B7002306B700A305B7002305B700A30432
:10025000B7002304B700A303B7002303B700A3022A
:10026000B7002302B700A301B7002301B700A30022
:10027000B7002300B700828093F5F50F93968500B1
:10028000D58D93960501D58D61B79396270097027A
:10029000000096968682E78086FA9680C1171D8FA9
:1002A0003E96E374C3F8A5B73367B500FD530D8BD5
:1002B00079E7B7877F7F9387F7F710419441B3724F
:1002C000F6003363F600BE92B3E262006397720CED
:1002D0006318D6065041D441B372F6003363F6007A
:1002E000BE92B3E262006398720A631BD6041045A3
:1002F0009445B372F6003363F600BE92B3E2620037
:100300006391720A631ED6025045D445B372F6005B
:100310003363F600BE92B3E26200639A720863111F
:10032000D60210499449B372F6003363F600BE92C8
:10033000B3E26200639372085105D105E30FD6F66C
:100340001317060193970601631CF7001357060164
:1003500093D706013305F7409375F50F91E9828035
:100360004183C1833305F7409375F50F91E1828096
:100370001377F70F93F7F70F3305F74082800346A3
:10038000050083C60500050585056313D60065FADB
:100390003305D640828011059105E312D6FE014552
:1003A00082802105A105E31CD6FC01458280310530
:1003B000B105E316D6FC014582804105C105E31075
:1003C000D6FC01458280011122CE00102326A4FE16
:1003D0002324B4FE37F600E04C4237F600E0F999EA
:1003E0004CC20326C4FEB2860147032684FEB287B0
:1003F000014837F600E03305F702B305D802AA95A5
:100400003385F602B3B3F6022A83B3877500BE8341
:1004100023286600232A7600B7F700E09843B7F751
:1004200000E01367070198C3B7F700E09843B7F7F8
:1004300000E01367170298C30100B7F700E0DC4340
:1004400013F717008547E31AF7FEB7F700E0984364
:10045000B7F700E0799B98C3010072440561828080
:10046000011106CE22CC0010AA8E2E8E3283368544
:10047000BA853E86C2864687F687A307F4FEF287D2
:100480002307F4FE9A87A306F4FEAA872306F4FE48
:10049000AE87A305F4FEB2872305F4FEB687A30456
:1004A000F4FEBA872304F4FE8347F4FE9306800427
:1004B000014681453E85EF0090208347E4FE930688
:1004C0008004014681453E85EF00701F8347D4FEBE
:1004D00093068004014681453E85EF00501E834708
:1004E000C4FE93068004014681453E85EF00301D21
:1004F0008347B4FE93068004014681453E85EF00A4
:10050000101C8347A4FE93068004014681453E8566
:10051000EF00F01A834794FE93068004014681455C
:100520003E85EF00D019834784FE93068004014680
:1005300081453E85EF00B018834744009306800450
:10054000014681453E85EF009017834704009306DE
:100550008004014681453E85EF0070168347840084
:1005600093068004014681453E85EF005015010049
:10057000F240624405618280011106CE22CC001057
:100580002326A4FE2324B4FEB28736872313F4FE69
:10059000BA872312F4FE85450965EF800037B70757
:1005A000055083C7070013F7F70FB70705501377F8
:1005B000F7FC1377F70F2380E700B707055083C7D1
:1005C000070013F7F70FB7070550136727041377D2
:1005D000F70F2380E700B707055083C7170013F70D
:1005E000F70FB7070550659B1377F70FA380E70058
:1005F000B7070550035744FE2392E700B70705509D
:10060000035764FE2393E700B70705500327C4FE92
:1006100098C7B7070550032784FED8C7B70705500A
:1006200083C7170013F7F70FB70705501377F703C2
:100630001377F70FA380E70037070550B70705507A
:10064000034717001377F70FA380E700B70705509C
:1006500083C7270013F7F70FB70705501367470045
:100660001377F70F2381E700B707055083C71700FB
:1006700013F7F70FB7070550136717001377F70F36
:10068000A380E700B707055083C7070013F7F70FEC
:10069000B7070550136717001377F70F2380E7009C
:1006A0008D4513056005EF60900813056005EF6048
:1006B00050040100F240624405618280797106D6DF
:1006C00022D40018232EA4FC231704FE231604FEB4
:1006D0000327C4FDA54763E0E70C8327C4FD1397F8
:1006E0002700F567938747EABA979C438287B73715
:1006F0000140938707C083D74702C207C1832317EE
:10070000F4FE69A8B707004083D74702C207C18338
:100710002317F4FE61A0B70700409387074083D7F3
:100720004702C207C1832317F4FE8DA8B717004004
:100730009387078083D74702C207C1832317F4FE3C
:10074000B1A8B7170040938707C083D74702C207F5
:10075000C1832317F4FE99A0B73701409387074060
:1007600083D74702C207C1832317F4FE05A8B757F2
:100770000140938707C083D74702C207C18323176D
:10078000F4FE29A8B757014083D74702C207C183A7
:100790002317F4FE21A0231704FE0100B707002051
:1007A000138707008327C4FDBA9783C7070013F791
:1007B000F70F9307F00F6317F7008357E4FE231634
:1007C000F4FE2DA8B7070020138707008327C4FD78
:1007D000BA9783C7070093F7F70F3E854525AA8789
:1007E00091EB8357E4FEB307F040C207C1832316A1
:1007F000F4FE29A08357E4FE2316F4FE8317C4FEFB
:100800003E85B250225445618280011122CE0010F3
:100810002326A4FE0327C4FEA54763E0E708832739
:10082000C4FE13972700F5679387C7ECBA979C43DC
:100830008287B7370140938707C023920702B9A880
:10084000B70700402392070291A8B707004093879B
:1008500007402392070299A0B717004093870780AB
:100860002392070225A8B7170040938707C0239259
:1008700007022DA0B7370140938707402392070254
:1008800031A8B7570140938707C02392070239A0C8
:10089000B75701402392070211A0010001007244E2
:1008A00005618280397106DE22DC80002326A4FCEB
:1008B0002324B4FC2322C4FC232604FE91450325F3
:1008C000C4FCEF10D07EAA873E8713060008F167AC
:1008D000938547703A85EF508067832784FCB18306
:1008E0000327C4FCB307F74093B7170093F7F70F3C
:1008F0003E8713061008F167938547703A85EF50DD
:100900000065832744FCB1830327C4FCB307F74089
:1009100093B7170093F7F70F3E8713062008F16788
:10092000938547703A85EF5080620325C4FCEF1031
:10093000707E832784FC93F7F70F930680040146AB
:1009400081453E85AD2B832744FC93F7F70F930633
:100950008004014681453E859D230327C4FCA547AD
:1009600063E0E7088327C4FC13972700F5679387A4
:1009700047EFBA979C438287B7370140938707C0F8
:100980002324F4FE8DA0B70700402324F4FEA1A881
:10099000B7070040938707402324F4FEA9A0B717A8
:1009A0000040938707802324F4FE35A8B717004042
:1009B000938707C02324F4FE3DA0B73701409387F7
:1009C00007402324F4FE05A0B7570140938707C0D2
:1009D0002324F4FE09A8B75701402324F4FE21A0E4
:1009E00085472326F4FE832784FC13D787008D4791
:1009F000631AF7008545B70716001385070CEF70DB
:100A0000F027E5A8832784FC13D78700C547631A1E
:100A1000F7008545B707180013850710EF701026FB
:100A2000E9A8832784FC13D7870093072002631A61
:100A3000F7008545B7171A0013850780EF7010245B
:100A40006DA8832784FC13D7870093073002631AAD
:100A5000F7008545B7171A00138507C0EF701022FD
:100A600069A8832784FC13D78700930710036317B3
:100A7000F70085450565EF70702041A0832784FC51
:100A800013D7870093071007631AF7008545B70748
:100A9000008013854700EF70701E85A0832784FCBB
:100AA00013D7870093073008631AF7008545B70707
:100AB000138013850701EF70701C81A0832784FCCD
:100AC00013D7870093071009631AF7008545B70706
:100AD000158013850702EF70701A05A0832784FC28
:100AE00013D78700930730096319F7008545B707C7
:100AF000158013850704EF7070188327C4FEADEBD3
:100B000085450545EF70D064232E04FC232004FEA8
:100B1000231204FE9307C4FD3E85EF805016231E6A
:100B200004FCFD572310F4FE231104FE231F04FCD4
:100B3000230204FE9307C4FDBE85032584FEEF80D7
:100B4000200F93050006032584FEEF80902985453C
:100B5000032584FEEF8070168146014689450325F2
:100B600084FEEF8050318545032584FEEF80F0142C
:100B70000100F250625421618280797106D622D43C
:100B80000018232EA4FC232CB4FC8327C4FD93B7A8
:100B9000070493F7F70F3E8713067003F1679385F9
:100BA00047763A85EF50A03A832784FD93B74700F4
:100BB00093F7F70F3E8713068003F1679385477617
:100BC0003A85EF50C038A30704FE0327C4FDA16790
:100BD000BA9713972700832784FDBA97AA0723247F
:100BE000F4FE231604FE35A00357C4FE832784FEBB
:100BF000BA979843B747E3399387379E6306F70060
:100C00008547A307F4FE21A88357C4FE9107231646
:100C1000F4FE0357C4FE9307F03FE3F7E7FC834776
:100C2000F4FE3E85B250225445618280797106D629
:100C300022D40018232EA4FC232CB4FC8327C4FD4B
:100C400093B7070493F7F70F3E8713064005F16744
:100C5000938547763A85EF50802F832784FD93B79D
:100C6000470093F7F70F3E8713065005F16793850A
:100C700047763A85EF50A02DA30704FE0327C4FD55
:100C8000A167BA9713972700832784FDBA97AA070D
:100C90002324F4FEEF70C03413054003EF70004BC3
:100CA000032584FEEF7040382A87B767002023A809
:100CB000E72E13050002EF706049EF700035B7674B
:100CC000002003A7072F91476305F7008547A30777
:100CD000F4FE8347F4FE3E85B25022544561828083
:100CE000797106D622D40018232EA4FC232CB4FC40
:100CF000232AC4FCB6872319F4FC8327C4FD93B7C9
:100D0000070493F7F70F3E871306E008F167938512
:100D100047763A85EF50A023832784FD93B7470099
:100D200093F7F70F3E871306F008F1679385477630
:100D30003A85EF50C021835724FD93B7171093F7DE
:100D4000F70F3E8713060009F167938547763A85CA
:100D5000EF50E01FA30704FE232404FE0327C4FD75
:100D6000A167BA9713972700832784FDBA97AA072C
:100D70002324F4FE832584FD0325C4FDFD3BAA87BF
:100D800091C7832584FD0325C4FD4D35EF60E01F29
:100D90002322A4FEEF70C02491A0832744FD138773
:100DA0004700232AE4FC9C43BE85032584FEEF70A4
:100DB000002F2A87B767002023AAE72EB7670020F5
:100DC00003A7472F91476306F7008547A307F4FE63
:100DD00029A8832784FE91072324F4FE835724FD4A
:100DE0001387F7FF2319E4FCCDFBEF7000220325E6
:100DF00044FEEF6060168347F4FE3E85B2502254F5
:100E000045618280011122CE00102326A4FEAE8708
:100E1000A305F4FE8347B4FE85CB8327C4FEBD8BB8
:100E20000547B317F70093960701C1828327C4FED5
:100E300013D75700B70700200A079387C700BA9750
:100E40009C43368798CB3DA08327C4FEBD8B0547C6
:100E5000B317F70093960701C1828327C4FE13D707
:100E60005700B70700200A079387C700BA979C432B
:100E70003687D8CB0100724405618280011122CEF1
:100E800000102326A4FE8327C4FE958313F7770062
:100E9000B70700200A079387C700BA979C439C476F
:100EA0000327C4FE7D8B85463397E600F98FB33761
:100EB000F00093F7F70F3E857244056182807971E7
:100EC00006D622D40018232EA4FC232CB4FCB2870F
:100ED0002328D4FCA30BF4FC232004FE232204FECD
:100EE000232404FE8327C4FD958393F7F70F9D8B7E
:100EF000A307F4FE8327C4FD93F7F70FFD8B2307A9
:100F0000F4FE8347F4FE91E785451145EF705024C8
:100F100091A80347F4FE85476317F70085452145EF
:100F2000EF70102381A00347F4FE89476317F70091
:100F300085454145EF70D02135A00347F4FE8D472C
:100F40006318F700854513050002EF70702019A89B
:100F50000347F4FE91476317F70085451305000426
:100F6000EF70101F8347E4FE0547B317F700C20771
:100F7000C1832310F4FE032784FD85476317F7021E
:100F8000832704FDC207C183A183C207C18389E708
:100F90008D472322F4FE11A8832704FDC207C183D5
:100FA000A183C207C1832322F4FE832704FDC20765
:100FB000C18393F7F70F2324F4FE0347F4FEB7072A
:100FC00000200A079387C700BA979C43130704FEC3
:100FD000BA853E85EF706024032784FD8547631939
:100FE000F7020347F4FEB70700200A079387C700FC
:100FF000BA9794438347E4FE0547B317F700C20747
:10100000C183034774FD3A86BE853685EF70804301
:101010000100B2502254456182801D7186CEA2CC5F
:1010200080102326A4FA2324B4FA85450325C4FAA4
:10103000EF10F007AA873E871306D006F167938565
:10104000C77E3A85EF40B070832784FAB337F0004B
:1010500093F7F70F3E871306F006F1679385C77E77
:101060003A85EF40D06E832784FABD832315F4FEC2
:101070008357A4FE85073E87832784FAB3D7E70208
:101080002314F4FE0325C4FAEF10D008B73701404B
:10109000938707C02326F4FE0327C4FAA54763EC11
:1010A000E7088327C4FA13972700F5679387C7F1EA
:1010B000BA979C438287B7370140938707C023269E
:1010C000F4FE95A8B70700402326F4FEADA0B707AD
:1010D0000040938707402326F4FEB1A8B7170040CD
:1010E000938707802326F4FEB9A0B71700409387A3
:1010F00007C02326F4FE81A0B71700402326F4FE84
:101100001DA8B7170040938707402326F4FE25A0AB
:10111000B7370140938707402326F4FE29A8B75725
:101120000140938707C02326F4FE31A0B757014042
:101130002326F4FE0100232E04FC232004FE2312A8
:1011400004FE835784FE2310F4FE8357A4FE231E5F
:10115000F4FC231104FE231F04FC230204FE930766
:10116000C4FDBE850325C4FEEF70902C0546854561
:101170000325C4FEEF80E03F85450325C4FEEF80D4
:10118000100DF16703AE477C1387477C03234700AC
:101190001387477C832887001387477C0328C70071
:1011A0001387477C084B1387477C4C4B1387477C3E
:1011B000104F1387477C544F1387477C18539387EE
:1011C000477CDC53232AC4FB232C64FA232E14FB14
:1011D000232004FD2322A4FC2324B4FC2326C4FCE6
:1011E0002328D4FC232AE4FC232CF4FC8327C4FA10
:1011F00093F7F70F8A07130704FFBA9783A747FCF3
:101200008D453E85EF50B0528327C4FA8A071307F5
:1012100004FFBA9783A747FC3E85EF50904D854564
:101220000325C4FEEF8060290100F6406644256175
:101230008280797106D622D40018232EA4FC232C98
:10124000B4FC032784FD896793871771B337F700D0
:1012500093F7F70F3E8713065003F567938587844E
:101260003A85EF40D04EB7370140938707C0232619
:10127000F4FE8327C4FDC183BD8B2547636EF7064B
:1012800013972700F567938747F4BA979C438287A3
:10129000B7370140938707C02326F4FEB1A8B707EC
:1012A00000402326F4FE89A8B70700409387074033
:1012B0002326F4FE91A0B7170040938707802326CA
:1012C000F4FE1DA8B7170040938707C02326F4FE3D
:1012D00025A0B7370140938707402326F4FE29A8AD
:1012E000B7570140938707C02326F4FE31A0B757B4
:1012F00001402326F4FE01008327C4FE83D7C702E2
:101300002315F4FE0357A4FE832784FD3307F70259
:10131000896793870771B357F7022314F4FE832775
:10132000C4FDA1838D8B81EB8327C4FE035784FE0C
:10133000239AE702A9A88327C4FDA18313F73700E6
:1013400085476319F7008327C4FE035784FE239C57
:10135000E70235A88327C4FDA18313F73700894727
:101360006319F7008327C4FE035784FE239EE70218
:1013700039A88327C4FDA18313F737008D4763186D
:10138000F7008327C4FE035784FE2390E70401007F
:10139000B2502254456182805D7186C6A2C4800825
:1013A000232EA4FA232CB4FA232AC4FA8327C4FBDD
:1013B000C1838D453E85EF10804FAA873E87130677
:1013C000D00AF567938587843A85EF405038032724
:1013D00044FB896793871771B337F70093F7F70FCB
:1013E0003E871306F00AF567938587843A85EF40B8
:1013F0001036232E04FC232004FE231204FE232691
:1014000004FC232804FC232A04FC232C04FC2315BD
:1014100004FE8327C4FBC183BD8B3E85EF10804F44
:101420008327C4FB93F7F70F930680310146854568
:101430003E85713485450545EF708051B7370140D1
:10144000938707C02326F4FE8327C4FBC183BD8B8B
:101450002547636EF70613972700F5679387C7F64E
:10146000BA979C438287B7370140938707C02326EA
:10147000F4FEB1A8B70700402326F4FE89A8B707F9
:101480000040938707402326F4FE91A0B717004041
:10149000938707802326F4FE1DA8B7170040938783
:1014A00007C02326F4FE25A0B737014093870740E5
:1014B0002326F4FE29A8B7570140938707C02326A7
:1014C000F4FE31A0B75701402326F4FE0100832724
:1014D000C4FB13D7C7008D47631AF7008545B707CC
:1014E00016001385070CEF60707915AA8327C4FBDB
:1014F00013D7C700C547631AF7008545B70718001B
:1015000013850710EF60907719AA8327C4FB13D7C0
:10151000C700C947631AF7008545B7071800138548
:101520000720EF60B075E5A88327C4FB13D7C70079
:10153000CD47631AF7008545B707180013850730B4
:10154000EF60D073E9A88327C4FB13D7C7009307C4
:101550002002631AF7008545B7171A001385078024
:10156000EF60D0716DA88327C4FB13D7C700930722
:101570003002631AF7008545B7171A00138507C0B4
:10158000EF60D06F69A88327C4FB13D7C700930708
:1015900010036317F70085450565EF60306E41A0C5
:1015A0008327C4FB13D7C70093071007631AF700FC
:1015B0008545B707008013854700EF60306C85A034
:1015C0008327C4FB13D7C70093073008631AF700BB
:1015D0008545B707138013850701EF60306A81A046
:1015E0008327C4FB13D7C70093071009631AF700BA
:1015F0008545B707158013850702EF60306805A0A1
:101600008327C4FB13D7C700930730096319F7007A
:101610008545B707158013850704EF60306603A77B
:10162000C182832784FBB357F702C1832315F4FEDD
:1016300003A7C1828357A4FE8507BE86832784FB48
:10164000B387F602B357F7022314F4FE035784FE60
:10165000832744FB3307F702896793870771B357E2
:10166000F7022313F4FE835784FEFD17C207C183DC
:101670002310F4FE8357A4FE231EF4FC231104FE62
:10168000231F04FC230204FE9307C4FDBE8503252B
:10169000C4FEEF70E059930700072316F4FC85475A
:1016A0002317F4FC231804FC835764FE2319F4FC6D
:1016B0008947231AF4FC8947231BF4FC231C04FCF0
:1016C000231D04FC8327C4FBA1838D8B9DE393071B
:1016D000C4FCBE850325C4FEEF70606DA1450325E3
:1016E000C4FEEF80C00691450325C4FEEF80E01ADA
:1016F00045A08327C4FBA18313F7370085476315F3
:10170000F7029307C4FCBE850325C4FEEF70F00307
:10171000A1450325C4FEEF80400893050040032542
:10172000C4FEEF80401CADA08327C4FBA18313F748
:10173000370089476314F7029307C4FCBE8503256D
:10174000C4FEEF70B01EA1450325C4FEEF80800AE1
:1017500091450325C4FEEF80601E1DA88327C4FBAE
:10176000A18313F737008D476314F7029307C4FC76
:10177000BE850325C4FEEF703039A1450325C4FEA4
:10178000EF80000C930500400325C4FEEF80C01FCE
:1017900085450325C4FEEF70D05785450325C4FE5B
:1017A000EF70B0510100B6402644616182807971CA
:1017B00006D622D40018232EA4FC8327C4FDB337F9
:1017C000F00093F7F70F3E8713061004F567938533
:1017D000478A3A85EF40A0778327C4FD9C43BD8BA1
:1017E0000547B317F70093960701C1828327C4FD0D
:1017F0009C4313D75700B70700200A079387C700F9
:10180000BA979C43368798CB8327C4FDDC43BD8BB6
:101810000547B317F70093960701C1828327C4FDDC
:10182000DC4313D75700B70700200A079387C70088
:10183000BA979C43368798CB8327C4FDDC47232681
:10184000F4FE01008327C4FE1387F7FF2326E4FE7E
:10185000F5FB8327C4FDDC43BD8B0547B317F700B9
:1018600093960701C1828327C4FDDC4313D7570039
:10187000B70700200A079387C700BA979C433687AB
:10188000D8CB8327C4FDDC472324F4FE0100832743
:1018900084FE1387F7FF2324E4FEF5FB8327C4FDB2
:1018A0009C43BD8B0547B317F70093960701C18290
:1018B0008327C4FD9C4313D75700B70700200A07AE
:1018C0009387C700BA979C433687D8CB0100B250A4
:1018D000225445618280797106D622D40018232EC5
:1018E000A4FC8327C4FDB337F00093F7F70F3E87BE
:1018F00013064005F5679385478A3A85EF402065D2
:101900008327C4FDDC43BD8B0547B317F7009396CF
:101910000701C1828327C4FDDC4313D75700B707F3
:1019200000200A079387C700BA979C433687D8CB15
:101930008327C4FD9C43BD8B0547B317F7009396DF
:101940000701C1828327C4FD9C4313D75700B70703
:1019500000200A079387C700BA979C433687D8CBE5
:101960008327C4FDDC472326F4FE01008327C4FE41
:101970001387F7FF2326E4FEF5FB8327C4FD9C4372
:10198000BD8B0547B317F70093960701C1828327E4
:10199000C4FD9C4313D75700B70700200A0793875D
:1019A000C700BA979C43368798CB8327C4FDDC4792
:1019B0002324F4FE0100832784FE1387F7FF2324EA
:1019C000E4FEF5FB8327C4FDDC43BD8B0547B3175D
:1019D000F70093960701C1828327C4FDDC4313D728
:1019E0005700B70700200A079387C700BA979C43A0
:1019F000368798CB8327C4FDDC472322F4FE010001
:101A0000832744FE1387F7FF2322E4FEF5FB010042
:101A1000B250225445618280797106D622D40018D2
:101A2000232EA4FCAE87A30DF4FC8327C4FDB3379B
:101A3000F00093F7F70F3E8713069006F56793853E
:101A4000478A3A85EF40A0508327C4FD9C43BD8B55
:101A50000547B317F70093960701C1828327C4FD9A
:101A60009C4313D75700B70700200A079387C70086
:101A7000BA979C433687D8CB8347B4FD95CB832751
:101A8000C4FDDC43BD8B0547B317F70093960701F0
:101A9000C1828327C4FDDC4313D75700B70700205A
:101AA0000A079387C700BA979C43368798CB0DA83F
:101AB0008327C4FDDC43BD8B0547B317F70093961E
:101AC0000701C1828327C4FDDC4313D75700B70742
:101AD00000200A079387C700BA979C433687D8CB64
:101AE0008327C4FDDC472326F4FE01008327C4FEC0
:101AF0001387F7FF2326E4FEF5FB8327C4FD9C43F1
:101B0000BD8B0547B317F70093960701C182832762
:101B1000C4FD9C4313D75700B70700200A079387DB
:101B2000C700BA979C43368798CB8327C4FDDC4710
:101B30002324F4FE0100832784FE1387F7FF232468
:101B4000E4FEF5FB8327C4FD9C43BD8B0547B3171B
:101B5000F70093960701C1828327C4FD9C4313D7E6
:101B60005700B70700200A079387C700BA979C431E
:101B70003687D8CB8327C4FDDC43BD8B0547B3171D
:101B8000F70093960701C1828327C4FDDC4313D776
:101B90005700B70700200A079387C700BA979C43EE
:101BA000368798CB0100B25022544561828079710A
:101BB00006D622D40018232EA4FC8327C4FDB337F5
:101BC000F00093F7F70F3E8713065008F5679385EB
:101BD000478A3A85EF40A037A30704FE8327C4FD58
:101BE0009C43BD8B0547B317F70093960701C1824D
:101BF0008327C4FD9C4313D75700B70700200A076B
:101C00009387C700BA979C433687D8CB8327C4FDF8
:101C1000DC43BD8B0547B317F70093960701C182DC
:101C20008327C4FDDC4313D75700B70700200A07FA
:101C30009387C700BA979C43368798CB8327C4FD08
:101C4000DC472324F4FE0100832784FE1387F7FF7B
:101C50002324E4FEF5FB8327C4FD9C43BD8B05478D
:101C6000B317F70093960701C1828327C4FD9C43F5
:101C700013D75700B70700200A079387C700BA9702
:101C80009C43368798CB8327C4FDDC472322F4FE90
:101C90000100832744FE1387F7FF2322E4FEF5FBB0
:101CA0008327C4FDDC433E85EFF04F9DAA8781C7A3
:101CB0008547A307F4FE8327C4FD9C43BD8B0547DE
:101CC000B317F70093960701C1828327C4FD9C4395
:101CD00013D75700B70700200A079387C700BA97A2
:101CE0009C433687D8CB8327C4FDDC472320F4FEF2
:101CF0000100832704FE1387F7FF2320E4FEF5FB92
:101D00008347F4FE3E85B25022544561828079714A
:101D100006D622D40018232EA4FCAE87A30DF4FC13
:101D20008327C4FDB337F00093F7F70F3E87130600
:101D3000700AF5679385478A3A85EF4040219307FB
:101D400000F8A307F4FE09AA0347B4FD8347F4FE95
:101D5000F98F93F7F70F95CB8327C4FDDC43BD8B39
:101D60000547B317F70093960701C1828327C4FD87
:101D7000DC4313D75700B70700200A079387C70033
:101D8000BA979C43368798CB0DA88327C4FDDC43C4
:101D9000BD8B0547B317F70093960701C1828327D0
:101DA000C4FDDC4313D75700B70700200A07938709
:101DB000C700BA979C433687D8CB8347F4FE858308
:101DC000A307F4FE8327C4FDDC472324F4FE0100AF
:101DD000832784FE1387F7FF2324E4FEF5FB832784
:101DE000C4FD9C43BD8B0547B317F70093960701CD
:101DF000C1828327C4FD9C4313D75700B707002037
:101E00000A079387C700BA979C43368798CB8327E6
:101E1000C4FDDC472322F4FE0100832744FE138720
:101E2000F7FF2322E4FEF5FB8327C4FD9C43BD8B13
:101E30000547B317F70093960701C1828327C4FDB6
:101E40009C4313D75700B70700200A079387C700A2
:101E5000BA979C433687D8CB8347F4FEE39607EEC8
:101E60000325C4FDA933AA87FD17B337F00093F704
:101E7000F70F3E85B250225445618280397106DEEB
:101E800022DC26DA80002326A4FCAE87A305F4FC1E
:101E90008327C4FCB337F00093F7F70F3E87130690
:101EA000000CF5679385478A3A85EF40400AA307FF
:101EB00004FEA1472307F4FE8327C4FC9C43BD8B8B
:101EC0000547B317F70093960701C1828327C4FC27
:101ED0009C4313D75700B70700200A079387C70012
:101EE000BA979C433687D8CB8327C4FCDC4723248E
:101EF000F4FE0100832784FE1387F7FF2324E4FE0A
:101F0000F5FB8327C4FCDC43BD8B0547B317F70003
:101F100093960701C1828327C4FCDC4313D7570083
:101F2000B70700200A079387C700BA979C433687F4
:101F300098CB7DA88327C4FC9C43BD8B0547B31772
:101F4000F70093960701C1828327C4FC9C4313D7F3
:101F50005700B70700200A079387C700BA979C432A
:101F60003687D8CB8327C4FCDC472322F4FE01004C
:101F7000832744FE1387F7FF2322E4FEF5FB832724
:101F8000C4FC9C43BD8B0547B317F700939607012C
:101F9000C1828327C4FC9C4313D75700B707002096
:101FA0000A079387C700BA979C43368798CB832745
:101FB000C4FCDC472320F4FE0100832704FE1387C2
:101FC000F7FF2320E4FEF5FB8347F4FE8607939496
:101FD0008701E1848327C4FCDC433E85EFE01FEAF0
:101FE000AA87E207E187C58FE207E187A307F4FE2E
:101FF0008347E4FE1387F7FF2307E4FE85FF83276B
:10200000C4FC9C43BD8B0547B317F70093960701AB
:10201000C1828327C4FC9C4313D75700B707002015
:102020000A079387C700BA979C433687D8CB832784
:10203000C4FCDC47232EF4FC01008327C4FD138776
:10204000F7FF232EE4FCF5FB8347B4FCBE85032594
:10205000C4FCEFF07F9C8347F4FE3E85F25062544F
:10206000D25421618280011106CE22CC0010232699
:10207000A4FEAE873287A305F4FEBA872305F4FEDB
:102080008327C4FEB337F00093F7F70F3E8713069C
:10209000B028F5679385478A3A85EF30506B032562
:1020A000C4FEEFF0CFF08327C4FE83C78700860706
:1020B00093F7F70FBE850325C4FE91398347B4FE1D
:1020C000BE850325C4FEA1318347A4FEBE8503253A
:1020D000C4FE35390325C4FEEFF0EFFF0100F240E6
:1020E000624405618280797106D622D40018232EBD
:1020F000A4FCAE87A30DF4FC8327C4FDB337F00026
:1021000093F7F70F3E871306D029F5679385478A23
:102110003A85EF30D063A30704FE0325C4FDEFF03A
:102120000FE98327C4FD83C78700860793F7F70F5E
:10213000BE850325C4FDE13E8347B4FDBE8503256E
:10214000C4FDF1360325C4FDEFF0EFF80325C4FD0F
:10215000EFF0EFE58327C4FD83C787008607E2071A
:10216000E18793E71700E207E18793F7F70FBE8552
:102170000325C4FD693E85450325C4FD0133AA87B7
:10218000A307F4FE0325C4FDEFF0EFF48347F4FE4C
:102190003E85B250225445618280797106D622D4A0
:1021A00000182326A4FEAE872322C4FE2320D4FEDB
:1021B000232EE4FCA305F4FE8327C4FEB337F0000E
:1021C00093F7F70F3E871306802BF5679385478AB1
:1021D0003A85EF30D057032704FE8327C4FDB307A9
:1021E000F740B337F00093F7F70F3E871306902BB5
:1021F000F5679385478A3A85EF3070558327C4FE8B
:10220000032704FE98C38327C4FE0327C4FDD8C355
:102210008327C4FE0347B4FE2384E7008327C4FE5C
:10222000032744FED8C7C14605468545032504FE5D
:10223000EFE0FFC8D146054685450325C4FDEFE024
:102240001FC80100B250225445618280011122CE84
:1022500000102326A4FEAE87A305F4FEF56703272E
:10226000C4FE0A07938747F9BA979C433E87834782
:10227000B4FEC207C1832316F7000100F5670327E8
:10228000C4FE0A07938747F9BA979C4383D7870010
:10229000C207C18393F70708F5F3F5670327C4FE68
:1022A0000A07938747F9BA979C4383D7C700010071
:1022B000724405618280011122CE00102326A4FE03
:1022C000AE872315F4FE8357A4FEA183C207C18302
:1022D00093F6F70FF5670327C4FE0A07938747F9BC
:1022E000BA979C433E8793970601C1832316F70054
:1022F0000100F5670327C4FE0A07938747F9BA97D9
:102300009C4383D78700C207C18393F70708F5F37F
:102310008357A4FE93F6F70FF5670327C4FE0A0759
:10232000938747F9BA979C433E8793970601C183E9
:102330002316F7000100F5670327C4FE0A079387F9
:1023400047F9BA979C4383D78700C207C18393F7A5
:102350000708F5F30100724405618280011122CE65
:1023600000102326A4FEAE873287A305F4FEBA87A9
:102370002305F4FEF5670327C4FE0A07938747F990
:10238000BA979C433E878347B4FEC207C183231696
:10239000F7000100F5670327C4FE0A07938747F992
:1023A000BA979C4383D78700C207C18393F7070876
:1023B000F5F3F5670327C4FE0A07938747F9BA9731
:1023C0009C4383D7C700F5670327C4FE0A0793879A
:1023D00047F9BA979C433E878347A4FEC207C1834F
:1023E0002316F7000100F5670327C4FE0A07938749
:1023F00047F9BA979C4383D78700C207C18393F7F5
:102400000708F5F3F5670327C4FE0A07938747F922
:10241000BA979C4383D7C70001007244056182804C
:10242000011122CE00102326A4FEAE872322C4FE73
:102430002320D4FEA305F4FEF5670327C4FE0A0794
:10244000938747F9BA979C433E878347B4FEC207F8
:10245000C1832316F7000100F5670327C4FE0A07AE
:10246000938747F9BA979C4383D78700C207C183F4
:1024700093F70708F5F3B9A0832744FE13871700E5
:102480002322E4FE83C60700F5670327C4FE0A077C
:10249000938747F9BA979C433E8793970601C18378
:1024A0002316F7000100F5670327C4FE0A07938788
:1024B00047F9BA979C4383D78700C207C18393F734
:1024C0000708F5F3832704FE1387F7FF2320E4FEB4
:1024D000C5F70100724405618280011122CE00100F
:1024E0002326A4FEAE872322C4FE2320D4FEA30508
:1024F000F4FEF5670327C4FE0A07938747F9BA97E6
:102500009C433E878347B4FEC207C1832316F7006E
:102510000100F5670327C4FE0A07938747F9BA97B6
:102520009C4383D78700C207C18393F70708F5F35D
:10253000F5670327C4FE0A07938747F9BA979C43B8
:1025400083D7C70095A0F5670327C4FE0A079387C2
:1025500047F9BA979C43239607000100F5670327C4
:10256000C4FE0A07938747F9BA979C4383D787002D
:10257000C207C18393F70708F5F3F5670327C4FE85
:102580000A07938747F9BA979C4383D7C700939666
:102590000701C182832744FE138717002322E4FE2C
:1025A00013F7F60F2380E700832704FE1387F7FF56
:1025B0002320E4FEC9FB01007244056182805D7145
:1025C00086C6A2C480082326A4FC2324B4FC2322AC
:1025D000C4FC2320D4FC232EE4FA232CF4FA232A6F
:1025E00004FBF5670327C4FC0A07938747F9BA97EA
:1025F0009C433E85EF60404785450545EF6040358B
:10260000032704FC930730126313F702032784FBAC
:1026100093074012631DF7000327C4FB9307501272
:102620006317F70085450545EF5050651DA8032742
:1026300004FC89679387A7146315F702032784FBBB
:1026400089679387B714631EF7000327C4FB896764
:102650009387C7146317F700854537152000EF509F
:10266000F0618327C4FC91E785450565EF60402E46
:1026700025A00327C4FC85476317F700854511652E
:10268000EF60603111A80327C4FC89476316F70087
:1026900085452165EF602030832704FC93F7F70F11
:1026A00093068031054685453E85EFE05F818327AF
:1026B000C4FB93F7F70F93068031054685453E85A9
:1026C000EFE0EFFF032784FBC167F917630DF70005
:1026D000832784FB93F7F70F9306803405468145E3
:1026E0003E85EFE0CFFD032744FB9307F00F630D1A
:1026F000F700832744FB93F7F70F93060031014659
:1027000085453E85EFE0AFFB232E04FC232004FE2D
:10271000232204FE232404FE231604FE231E04FCAD
:1027200093074010231FF4FC231004FE032784FCAE
:1027300085476305F702832784FC81CF032784FC48
:1027400089476303F702032784FC8D476304F7027C
:102750000DA8231104FE231204FE25A0231104FE5C
:1027600085472312F4FE31A889472311F4FE231272
:1027700004FE01A889472311F4FE85472312F4FEC5
:102780000100231704FE03A7C182832744FCB3572B
:10279000F7022317F4FE03A7C182832744FCB37713
:1027A000F70291E78357E4FEFD172317F4FE035762
:1027B000E4FE9307F00763F7E7009307800323170E
:1027C000F4FE49A80357E4FE9307F00363F7E7001C
:1027D000930700032317F4FEB5A80357E4FEFD4753
:1027E00063F7E700930780022317F4FEA5A00357C1
:1027F000E4FEBD4763F7E700930700022317F4FEEA
:1028000091A80357E4FE9D4763F6E700E1472317CD
:10281000F4FE89A00357E4FE8D4763F6E700C14745
:102820002317F4FE05A80357E4FE854763F6E70087
:10283000A1472317F4FE39A88357E4FE81C7231765
:1028400004FE09A813067021F5679385879001455A
:10285000EF30E06F8357E4FE2314F4FE930700206B
:102860002313F4FE231504FE9D472316F4FEF5679B
:102870000327C4FC0A07938747F9BA979C433E870E
:102880009307C4FDBE853A85EF606025F567032791
:10289000C4FC0A07938747F9BA979C4385453E8550
:1028A000EF6060330100B640264461618280797137
:1028B00022D60018232EA4FC232CB4FC8547A307A2
:1028C000F4FE0327C4FD0A07938781B7BA979C4398
:1028D00099EB0327C4FD0A07938781B7BA970327AB
:1028E00084FD98C315A00327C4FD0A07938781B709
:1028F000BA979C43032784FD6316F7008547A30717
:10290000F4FE19A0A30704FE8347F4FE3E8532546B
:1029100045618280011106CE22CC00102326A4FE40
:102920008327C4FE81EB8545856713850780EF60AB
:1029300020026DA80327C4FE85476317F70085456D
:102940000545EF6040055DA00327C4FE8947631776
:10295000F70085450945EF60000449A80327C4FE38
:102960008D476317F70085451145EF60C002BDA88C
:102970000327C4FE91476317F70085452145EF60A3
:102980008001ADA00327C4FE95476317F700854576
:102990004145EF60400099A80327C4FE994763189A
:1029A000F700854513050002EF50F07E81A0032754
:1029B000C4FE9D476317F70085450965EF505079C0
:1029C00035A00327C4FEA1476318F70085453705E6
:1029D0000800EF50F07719A80327C4FEA547631736
:1029E000F700854537051000EF5090760100F24062
:1029F000624405618280797122D60018232EA4FCDE
:102A0000B7370140938707C02326F4FE231504FE41
:102A10000327C4FDA54763ECE7088327C4FD13978C
:102A20002700F567938707FABA979C438287B737E1
:102A30000140938707C02326F4FE95A8B7070040FE
:102A40002326F4FEADA0B707004093870740232656
:102A5000F4FEB1A8B7170040938707802326F4FE41
:102A6000B9A0B7170040938707C02326F4FE81A0C2
:102A7000B71700402326F4FE1DA8B7170040938720
:102A800007402326F4FE25A0B7370140938707406F
:102A90002326F4FE29A8B7570140938707C02326B1
:102AA000F4FE31A0B75701402326F4FE01000327AE
:102AB000C4FD0A07938701BABA9798438947631FF1
:102AC000F7008327C4FE83D747021397070141838A
:102AD0008D47B357F7022315F4FE39A08327C4FEB0
:102AE00083D747022315F4FE8357A4FE3E85325454
:102AF00045618280797122D60018232EA4FCB73755
:102B00000140938707C02326F4FE0327C4FDA54791
:102B100063ECE7088327C4FD13972700F5679387C5
:102B200087FCBA979C438287B7370140938707C0D9
:102B30002326F4FE95A8B70700402326F4FEADA097
:102B4000B7070040938707402326F4FEB1A8B717C4
:102B50000040938707802326F4FEB9A0B7170040F2
:102B6000938707C02326F4FE81A0B71700402326D1
:102B7000F4FE1DA8B7170040938707402326F4FEF4
:102B800025A0B7370140938707402326F4FE29A8E4
:102B9000B7570140938707C02326F4FE31A0B757EB
:102BA00001402326F4FE01008327C4FE239207027E
:102BB0000100325445618280797106D622D4001812
:102BC000232EA4FC232CB4FC85450325C4FDC5316C
:102BD000AA873E871306200FF567938547963A85A7
:102BE000EF30E0360327C4FD0A07938781B7BA9711
:102BF000054798C3B7370140938707C02326F4FEE3
:102C00000327C4FDA54763ECE7088327C4FD13979A
:102C10002700F567938707FFBA979C438287B737EA
:102C20000140938707C02326F4FE95A8B70700400C
:102C30002326F4FEADA0B707004093870740232664
:102C4000F4FEB1A8B7170040938707802326F4FE4F
:102C5000B9A0B7170040938707C02326F4FE81A0D0
:102C6000B71700402326F4FE1DA8B717004093872E
:102C700007402326F4FE25A0B7370140938707407D
:102C80002326F4FE29A8B7570140938707C02326BF
:102C9000F4FE31A0B75701402326F4FE01000325BE
:102CA000C4FD8D390327C4FD0A07938701BABA977B
:102CB000032784FD98C3232004FE232204FE23144B
:102CC00004FE032784FD85476315F702FD57231291
:102CD000F4FE03A7C182B7470F0093870724B357B9
:102CE000F702C207C183FD17C207C1832310F4FE98
:102CF0002DA8032784FD89476314F702FD5723128B
:102D0000F4FE03A7C1828567938787BBB357F70299
:102D1000C207C183FD17C207C1832310F4FE31A08F
:102D2000FD572312F4FE231004FE231304FE231187
:102D300004FE230404FE930704FEBE850325C4FE9F
:102D4000EF50106F85450325C4FEEF60007701004A
:102D5000B250225445618280011122CE00102326F8
:102D6000A4FEAE87A305F4FE0100F5670327C4FEA9
:102D70000A0793878701BA979C4383D70700C20746
:102D8000C18393F70708F5D3F5670327C4FE0A0745
:102D900093878701BA979C433E878347B4FEC20757
:102DA000C1832312F7000100724405618280011182
:102DB00006CE22CC00102326A4FE2324B4FE232218
:102DC000C4FE832784FEB337F00093F7F70F3E87E6
:102DD00013061004F5679385479C3A85EF3020175A
:102DE00029A8832784FE138717002324E4FE83C7C2
:102DF0000700BE850325C4FE8537832744FE13875D
:102E0000F7FF2322E4FEF1FF0100F2406244056176
:102E10008280011106CE22CC00102326A4FE23249A
:102E2000B4FE832784FEB337F00093F7F70F3E8795
:102E300013060005F5679385479C3A85EF3020110E
:102E400039A8832784FE138717002324E4FE838791
:102E5000070093F7F70FBE850325C4FEF53D8327D2
:102E600084FE83870700F1FF0100F24062440561A0
:102E70008280011106CE22CC00102326A4FEAE874C
:102E8000A305F4FEF5670327C4FE0A0793878701AD
:102E9000BA979C433E878347B4FE3E8693055052C3
:102EA0003A85EF60F0661387C1868327C4FEBA9720
:102EB00083C7070081453E85EF4060078347B4FE26
:102EC00081CF1387C1868327C4FEBA9783C70700C3
:102ED0003E85EF40000219A81387C1868327C4FEF0
:102EE000BA9783C707003E85EF4080020100F24099
:102EF000624405618280011122CE00102326A4FEC7
:102F00002324B4FEF5670327C4FE0A0793878701CD
:102F1000BA979C4383D70700C207C18393F7070280
:102F20008DC7F5670327C4FE0A0793878701BA9701
:102F30009C4383D74700C207C18313F7F70F83274A
:102F400084FE2380E700854711A081473E857244B7
:102F500005618280797106D622D40018232EA4FC44
:102F6000232CB4FC232AC4FC2328D4FC032744FDCF
:102F7000832704FD3D8F8327C4FDB207F98F93B7E4
:102F8000170093F7F70F3E871306A00AF56793859E
:102F9000479C3A85EF20B07B832744FD13D78700F9
:102FA000832704FDA183B307F74093B7170093F776
:102FB000F70F3E871306B00AF5679385479C3A855D
:102FC000EF20F078832744FD93F7F70FE1460146A1
:102FD00085453E85EFD0BFEE832704FD93F7F70FBD
:102FE00093068004014681453E85EFD05FED85451F
:102FF0000545EF50F015032744FDC167FD17F98F14
:103000000D67130707386385E7200D671307073837
:103010006369F7040567130757166381E7160567A9
:1030200013075716636FF7001307F022638AE70C44
:10303000130760306381E710130760126388E708A5
:1030400055A6096713078736638AE7160D671307C6
:1030500007126385E71809671307A7146380E7144D
:1030600051A615671307A738638CE7261567130762
:10307000A7386362F702116713078738638EE71E6C
:103080001567130787126383E72211671307471237
:10309000638AE71A81AE19671307C7386386E72A80
:1030A00019671307C7386368F700196713076710B4
:1030B0006382E72605AE1D671307E7106380E72CE0
:1030C0001D671307E7386385E72E29AEB707014070
:1030D000D44FB7070140370700FC7D17758FD8CF55
:1030E000B7070140D843B70701406D9BD8C3B70766
:1030F0000140D843B707014013674700D8C3DDA498
:10310000B7070140D44FB7070140370700FC7D17D0
:10311000758FD8CFB7070140D44FB70701403707A5
:103120000004558FD8CFB7070140D843B7070140F7
:103130006D9BD8C345ACB7070140D44FB7070140DA
:10314000370700FC7D17758FD8CFB7070140D44FE4
:10315000B707014037070004558FD8CFB7070140A4
:10316000D843B70701406D9BD8C3B7070140D84388
:10317000B707014013674700D8C3ADA4B7070140A4
:10318000D843B70701405D9BD8C3B7070140D84378
:10319000B707014013678700D8C3A9A4B707014048
:1031A000D843B70701401D9BD8C3B7070140D84398
:1031B000B707014013678700D8C32DA4B7070140A4
:1031C000D843B70701401D9BD8C3B7070140D84378
:1031D000B707014013678701D8C329A4B707014087
:1031E000D44FB70701403707FDFF7D17758FD8CF44
:1031F000B7070140D44F832744FDA18313970701EC
:10320000B70703007D8FB7070140558FD8CFD9AAE4
:10321000B7070140D44FB70701403707FDFF7D17BF
:10322000758FD8CFB7070140D44F832744FDA183C2
:1032300013970701B70703007D8FB7070140558F2C
:10324000D8CF4DA2B7070140D44FB7070140370789
:10325000F4FF7D17758FD8CFB7070140D44F832770
:1032600044FDA18313972701B7070C007D8FB70793
:103270000140558FD8CFBDA2B7070140D44FB70743
:1032800001403707F4FF7D17758FD8CFB70701408E
:10329000D44F832744FDA18313972701B7070C0060
:1032A0007D8FB7070140558FD8CF2DAAB7070140B2
:1032B000D44FB70701403707D0FF7D17758FD8CFA0
:1032C000B7070140D44F832744FDA18313974701DB
:1032D000B70730007D8FB7070140558FD8CF19A2AF
:1032E000B7070140D44FB70701403707D0FF7D171C
:1032F000758FD8CFB7070140D44F832744FDA183F2
:1033000013974701B70730007D8FB7070140558FEE
:10331000D8CFC9A8B7070140D44FB7070140370736
:1033200040FF7D17758FD8CFB7070140D44F832753
:1033300044FDA18313976701B707C0007D8FB707CE
:103340000140558FD8CF79A8B7070140D44FB707B0
:103350000140370740FF7D17758FD8CFB707014071
:10336000D44F832744FDA18313976701B707C0009B
:103370007D8FB7070140558FD8CFADA0B70701406B
:10338000D44FB7070140370700FD7D17758FD8CFA1
:10339000B7070140D44F832744FDA18313978701CA
:1033A000B70700037D8FB7070140558FD8CF1DA801
:1033B000B7070140D44FB7070140370700FD7D171D
:1033C000758FD8CFB7070140D44F832744FDA18321
:1033D00013978701B70700037D8FB7070140558F0B
:1033E000D8CF01008327C4FD91E785451165EF50D3
:1033F000205669A80327C4FD85476318F700854553
:1034000037050200EF50205951A00327C4FD89471A
:103410006318F700854537050400EF50C057BDA07D
:103420000327C4FD8D476318F7008545370508005D
:10343000EF506056A1A80327C4FD91476318F70019
:10344000854537051000EF50005589A00327C4FDBE
:1034500095476318F700854513050004EF50A05306
:1034600035A00327C4FD99476318F7008545130568
:103470000008EF50405219A80327C4FD9D47631769
:10348000F700854513050010EF50E050232004FE9F
:10349000232204FE232404FE232604FE832784FD26
:1034A0002320F4FE231204FE231304FE231404FE3F
:1034B000231604FEB1472315F4FEF5670327C4FD68
:1034C0000A0793878701BA979C433E87930704FEB8
:1034D000BE853A85EF60805AF5670327C4FD0A0769
:1034E00093878701BA979C4385453E85EF60407C72
:1034F0000100B250225445618280411106C622C4A7
:103500000008A146138601A48145138581BCEF30D4
:10351000E0510100B240224441018280411106C6BF
:1035200022C4000883A7C1A40547638BE700638812
:10353000070C0947638DE7000D47638FE702E9A099
:1035400083A781A41387170023A4E1A475A883A7E8
:1035500081A41387170023A4E1A403A781A4A5478E
:1035600063F1E70AB70700209387C7009C4B1167F8
:10357000D8CB23A401A471A003A701A58547631498
:10358000F7081305F008EFD07F8FAA87ADC3194560
:10359000EFF06FC6AA873E8783A781A41D8F93078C
:1035A000600963F2E7061945EFF0CFD483A781A441
:1035B000D3F717D05385F720EF50C16CF56703A6FA
:1035C00087A283A6C7A2EF40810FAA872E883E85D7
:1035D000C285EF502132AA87139707014183B7674D
:1035E0000020239CE72E094723A8E1A429A8194518
:1035F000EFF06FC0AA873E8723A4E1A429A00100B1
:1036000021A0010011A001000100B24022444101AB
:103610008280411106C622C4000883A7C1A40947BD
:10362000637CF7000D47639AE7001945EFF08FCCF4
:10363000054723A8E1A411A001000100B2402244E3
:1036400041018280011106CE22CC001083C751A512
:10365000638A070E09A8930734FE0546BE851385C5
:1036600041BEEF20705E930734FEBE851D45EFF02E
:103670009F88AA87EDF3034734FEA9476314F70C2C
:1036800099472322F4FE130744FE930784FE8546E0
:103690003A86BE85138541BEEF30400B930784FE0A
:1036A000138737000D46F567938507A33A85EF60CA
:1036B0008159AA879DEB03A7C1A58947630DF7062A
:1036C000054723AEE1A4138541BEEF203042AA870F
:1036D0002322F4FE930744FE81463E86938501C86B
:1036E000138541BEEF308006B9A0930784FE13878F
:1036F00037000D46F567938547A33A85EF60A154DF
:10370000AA8795EB03A781A589476306F7020547BA
:1037100023ACE1A4138541BEEF20503DAA872322AC
:10372000F4FE930744FE81463E86938501C01385CF
:1037300041BEEF30A001138541BEEF20302B05477D
:10374000238AE1A40100F2406244056182800111F4
:1037500006CE22CC0010AA872E87A307F4FEBA87D4
:103760002307F4FEB70700209387C7009C47130781
:103770000040D8CB0347E4FE8347F4FE3A86BE857B
:103780000945EFE0BFBDB70700209387C7009C47FE
:103790001307004098CB0100F2406244056182802B
:1037A000011106CE22CC0010AA872324B4FE2322C6
:1037B000C4FEA307F4FEB70700209387C7009C4709
:1037C00013070040D8CB8347F4FE832644FE03262C
:1037D00084FEBE850945EFE0BFC4B707002093878C
:1037E000C7009C471307004098CB0100F240624499
:1037F00005618280797106D622D40018AA87A30FAA
:10380000F4FCB70700209387C7009C4713070040CC
:10381000D8CB8347F4FD93E707F893F7F70F130727
:10382000C4FE89463A86BE850945EFE01FCBB7073F
:1038300000209387C7009C471307004098CB83471D
:10384000D4FE3E85B250225445618280797106D6FD
:1038500022D40018AA87232CB4FC232AC4FCA30F6B
:10386000F4FCB70700209387C7009C47130700406C
:10387000D8CB8347F4FD93E707F813F7F70F8327B7
:1038800044FD93861700930744FE3E86BA8509459A
:10389000EFE0BFC4B70700209387C7009C4713071A
:1038A000004098CB232604FE3DA08327C4FE138747
:1038B0001700832784FD93861700232CD4FC9306DE
:1038C00004FF3697034747FF2380E7008327C4FEA2
:1038D00085072326F4FE8327C4FE032744FDE3E681
:1038E000E7FC0100B250225445618280011106CEEE
:1038F00022CC0010A30504FEA30704FE231604FE39
:103900008357C4FE138717002316E4FE1307F00F36
:103910006376F7008547A307F4FE3DA00145D93D36
:10392000AA87A305F4FE03A7C1828967938707F4DA
:10393000B357F70285453E85EFC0FFA80347B4FEA5
:1039400093074002E31EF7FA8347F4FE3E85F240F8
:10395000624405618280011106CE22CC00109307DB
:1039600084FE1946BE853145D535834794FEA207AE
:10397000139707014187834784FEC207C187D98F08
:103980001397070141872393E1A68347B4FEA2075B
:103990001397070141878347A4FEC207C187D98FC8
:1039A0001397070141872394E1A68347D4FEA2071A
:1039B0001397070141878347C4FEC207C187D98F88
:1039C0001397070141872395E1A60100F240624465
:1039D00005618280011106CE22CC0010930784FE7F
:1039E0001946BE8549459D35834794FEA207139726
:1039F00007014187834784FEC207C187D98F139788
:103A0000070141872390E1A68347B4FEA2071397DD
:103A1000070141878347A4FEC207C187D98F139747
:103A2000070141872391E1A68347D4FEA20713979C
:103A3000070141878347C4FEC207C187D98F139707
:103A4000070141872392E1A60100F240624405612B
:103A50008280011106CE22CC0010A30704FE03A72A
:103A6000C1828967938707F4B357F702D1453E8532
:103A7000EFC07F951308F00F8967938747020967A6
:103A80001307570289669386360237969800130605
:103A9000066881450945EFE09FB2C1460546854568
:103AA0001305A004EFD0AFC10145A9338135AA8722
:103AB00085C393060011F567138607B2F5679385F2
:103AC00047B80145EF20204F8547A307F4FE5DA8C6
:103AD00081451305C007A53903A7C182896793876C
:103AE00007F4B357F70285453E85EFC0DF8D81456A
:103AF00013059005EFF0BFC50966F967938587F751
:103B00001305E0057139854513059005EFF03FC4B5
:103B100003A7C1828967938707F4B357F702D1459A
:103B20003E85EFC05F8A13051002E931AA8785E35D
:103B30009306F011F567138607B2F567938507BA08
:103B40000145EF2040478547A307F4FE25A8B94566
:103B50001305D007EFF0BFBF9305700A13050004EB
:103B6000EFF0FFBE9305900A13052004EFF03FBE6F
:103B7000894513051004EFF09FBD814513053004FE
:103B8000EFF0FFBC8347F4FE3E85F24062440561DE
:103B90008280011122CE0010AA87A307F4FE83467B
:103BA000F4FEB727014093870780DC4713F707F03F
:103BB000B727014093870780558FD8C7010072440B
:103BC00005618280011106CE22CC0010AA87A307CE
:103BD000F4FE83A7C1A6A5E7B70700209387C70017
:103BE000DC47414798CBB70700209387C700DC47E5
:103BF0004147D8CBB70700209387C700DC4713079E
:103C00000008D8CB8347F4FEBE850545EFE00FE4FE
:103C1000B70700209387C700DC471307000898CB3D
:103C2000B70700209387C700DC47414798CBB70709
:103C300000209387C700DC474147D8CB9DA8B70732
:103C400000209387C700DC4313070008D8CBB707D1
:103C500000209387C700DC43096798CB8346F4FEB6
:103C6000B727014093870780DC4713F707F0B72792
:103C7000014093870780558FD8C7B70700209387E7
:103C8000C700DC474147D8CBB70700209387C70060
:103C9000DC432167D8CBB70700209387C700DC43FC
:103CA000216798CBB70700209387C700DC474147BF
:103CB00098CB0100F240624405618280011106CE7A
:103CC00022CC0010AA87A307F4FE83A7C1A681EB2C
:103CD0008347F4FEBE850545EFE04FD785A0B707C3
:103CE00000209387C700DC431307000898CBB70771
:103CF00000209387C700DC43096798CB8347F4FE15
:103D00003E85413DB70700209387C700DC47414708
:103D1000D8CBB70700209387C700DC432167D8CBF7
:103D2000B70700209387C700DC43216798CBB7070C
:103D300000209387C700DC47414798CB0100F24041
:103D4000624405618280011106CE22CC0010AA8750
:103D50002317F4FE83A7C1A681EB8357E4FEBE853B
:103D60000545EFE04FD545A0B70700209387C70072
:103D7000DC431307000898CBB70700209387C700E0
:103D8000DC43096798CB8357E4FEA183C207C18354
:103D900093F7F70F3E85F53BB70700209387C700E1
:103DA000DC474147D8CBB70700209387C700DC43E7
:103DB0002167D8CBB70700209387C700DC43216772
:103DC00098CB8357E4FE93F7F70F3E85D933B707B7
:103DD00000209387C700DC474147D8CBB7070020B6
:103DE0009387C700DC432167D8CBB70700209387B0
:103DF000C700DC43216798CBB70700209387C70033
:103E0000DC47414798CB0100F24062440561828063
:103E1000011106CE22CC0010AA8736872317F4FEA4
:103E2000AE872316F4FEB2872315F4FEBA87231457
:103E3000F4FE83D741810357E4FEB337F70093F7CD
:103E4000F70F3E871306000FF567938507BC3A8589
:103E5000EF20E00F83D761810357C4FEB337F7002B
:103E600093F7F70F3E871306100FF567938507BC8E
:103E70003A85EF20C00D83D741810357A4FEB337A5
:103E8000F70093F7F70F3E871306200FF56793852A
:103E900007BC3A85EF20A00B83D76181035784FECE
:103EA000B337F70093F7F70F3E871306300FF56728
:103EB000938507BC3A85EF2080091305A0021933CA
:103EC0008357E4FE3E8541358357A4FE3E85A53DDC
:103ED0001305B002C5398357C4FE3E85AD358357FF
:103EE00084FE3E858D351305C002EFF0BFCD010085
:103EF000F240624405618280797106D622D40018AE
:103F00009307C4FD3E85EF20E00F8547231EF4FC98
:103F100083D74181231FF4FC83D761812310F4FEF2
:103F200083A701810547638AE70099EF9947230139
:103F3000F4FEA147A301F4FE09A8A1472301F4FE62
:103F4000C147A301F4FE11A00100B7470000938709
:103F500027612324F4FEB7470000938767F72326E1
:103F6000F4FE9307C4FD3E85EF20600F0100B250C0
:103F7000225445618280011106CE22CC001083A715
:103F8000C1A681EBB70700209387C700DC474147F4
:103F9000D8CB83D74181FD1713970701418383D77E
:103FA0006181FD17C207C183BE863A8681450145FE
:103FB0008535231704FE05A8231604FE11A883D710
:103FC000C1803E8549338357C4FE85072316F4FE1E
:103FD00083D761810357C4FEE363F7FE8357E4FE92
:103FE00085072317F4FE83D741810357E4FEE36579
:103FF000F7FC83A7C1A681EBB70700209387C70012
:10400000DC47414798CB0100F24062440561828061
:10401000011122CE00102326A4FE0327C4FE23A8EC
:10402000E1A60327C4FE854763EBE7001307000FF3
:10403000239AE18013070014239BE18009A813074A
:104040000014239AE1801307000F239BE1800100F5
:10405000724405618280011122CE0010AA872E874A
:104060002317F4FEBA872316F4FE0357E4FE2395C4
:10407000E1800357C4FE2396E1800100724405618C
:104080008280011106CE22CC0010AA87AE8632872C
:104090002317F4FEB6872316F4FEBA872315F4FE21
:1040A00083D741810357E4FEB337F70093F7F70F47
:1040B0003E8713069019F567938507BC3A85EF1084
:1040C000106983D761810357C4FEB337F70093F7B4
:1040D000F70F3E871306A019F567938507BC3A854D
:1040E000EF10F06683A7C1A681EBB7070020938786
:1040F000C700DC474147D8CB8356C4FE0356E4FED5
:104100000357C4FE8357E4FEBA853E85EFF05FD0C7
:104110008357A4FE3E85EFF01FC383A7C1A681EBA2
:10412000B70700209387C700DC47414798CB0100C1
:10413000F240624405618280797106D622D400186B
:10414000AA87231FF4FCAE87231EF4FCB287231D2D
:10415000F4FCB687231CF4FCBA87231BF4FC83D73A
:1041600041810357E4FDB337F70093F7F70F3E871C
:104170001306701BF567938507BC3A85EF10305D19
:1041800083D761810357C4FDB337F70093F7F70F67
:104190003E871306801BF567938507BC3A85EF10B1
:1041A000105B83D741810357A4FDB337F70093F722
:1041B000F70F3E871306901BF567938507BC3A857A
:1041C000EF10F05883D76181035784FDB337F700B0
:1041D00093F7F70F3E871306A01BF567938507BC7F
:1041E0003A85EF10D0560357E4FD8357A4FD63745E
:1041F000F700854711A0FD572317F4FE0357C4FDB0
:10420000835784FD6374F700854711A0FD5723167B
:10421000F4FE232404FE232204FE0357E4FD835707
:10422000A4FD630DF7080357C4FD835784FDB3074E
:10423000F74053F707D00357E4FD8357A4FDB307B6
:10424000F740D3F707D0D377F7182724F4FE835726
:10425000C4FD53F717D08357E4FDD3F617D0872753
:1042600084FED3F7F610D377F7082722F4FE03571E
:10427000C4FD835784FD1D8F9357F7413D8F1D8FDC
:104280008356E4FD8357A4FDB387F64093D6F741E8
:10429000B58F958F63DAE70CADA8835664FD03579D
:1042A000C4FD8357E4FD3686BA853E85D93B035766
:1042B000C4FE8357C4FDBA97231EF4FC0357C4FD04
:1042C000835784FDE31BF7FC7DA0835664FD0357F1
:1042D000C4FD8357E4FD3686BA853E85EFF07FDA6C
:1042E0000357C4FE8357C4FDBA97231EF4FC8357BB
:1042F000C4FD53F717D0872744FE5377F708872765
:1043000084FED377F718D39707C0C207C187231F4E
:10431000F4FC0357C4FD835784FDE318F7FAA1A802
:10432000835664FD0357C4FD8357E4FD3686BA8582
:104330003E85EFF01FD50357E4FE8357E4FDBA979F
:10434000231FF4FC8357E4FD53F717D0872784FE1F
:104350005377F710872744FED377F700D39707C02A
:10436000C207C187231EF4FC0357E4FD8357A4FD55
:10437000E318F7FA09A00100B25022544561828087
:10438000797106D622D40018AA87AE863287231FF9
:10439000F4FCB687231EF4FCBA87A30DF4FC83D784
:1043A00041810357E4FDB337F70093F7F70F3E87DA
:1043B0001306301FF567938507BC3A85EF10303937
:1043C00083D761810357C4FDB337F70093F7F70F25
:1043D0003E871306401FF567938507BC3A85EF10AB
:1043E000103783A7C1A681EBB70700209387C700CA
:1043F000DC474147D8CB83A7018105476388E70C99
:104400006399071EA30704FE65A88347F4FE13976C
:10441000070141838357E4FDBA9713950701418152
:104420008347F4FE1397070141838357E4FDBA974E
:104430001397070141838357C4FDA1079396070192
:10444000C1828357C4FD3A86BE85EFF07F9C830707
:10445000B4FD138707FE8346F4FE7566BA878607A8
:10446000BA97860713078662BA97B69783C707007D
:10447000A306F4FE230704FE15A88347D4FE858B0C
:1044800099C783D7A1803E85EFF0FF8B31A083D7FA
:10449000C1803E85EFF03F8B8347D4FE8583A30622
:1044A000F4FE8347E4FE85072307F4FE0347E4FE9A
:1044B0009D47E3F4E7FC8347F4FE8507A307F4FE7A
:1044C0000347F4FE9547E3F2E7F42DA2A30704FEA9
:1044D00019AA8347F4FE1397070141838357E4FD2C
:1044E000BA971395070141818347F4FE139707019B
:1044F00041838357E4FDBA9713970701418383579C
:10450000C4FDBD0793960701C1828357C4FD3A8657
:10451000BE85EFF0FF8F8307B4FD938607FE8347C8
:10452000F4FE75679206130787033697BA9783C719
:1045300007002306F4FE8307B4FD938607FE834736
:10454000F4FEA10775679206130787033697BA979B
:1045500083C70700A305F4FE230704FE15A88347BD
:10456000C4FE858B99C783D7A1803E85EFF0AFFD50
:1045700031A083D7C1803E85EFF0EFFC8347C4FEB6
:1045800085832306F4FE8347E4FE85072307F4FEB4
:104590000347E4FE9D47E3F4E7FC230704FE15A868
:1045A0008347B4FE858B99C783D7A1803E85EFF002
:1045B0008FF931A083D7C1803E85EFF0CFF88347D4
:1045C000B4FE8583A305F4FE8347E4FE8507230735
:1045D000F4FE0347E4FE9D47E3F4E7FC8347F4FE63
:1045E0008507A307F4FE0347F4FE9D47E3F3E7EED8
:1045F00011A0010083A7C1A681EBB7070020938714
:10460000C700DC47414798CB0100B25022544561B6
:104610008280797106D622D40018AA872E87232C8F
:10462000C4FC231FF4FCBA87231EF4FC83D741810A
:104630000357E4FDB337F70093F7F70F3E871306F0
:10464000A024F567938507BC3A85EF10501083D7F7
:1046500061810357C4FDB337F70093F7F70F3E8727
:104660001306B024F567938507BC3A85EF10300E2A
:10467000231704FE79A883A701810547638AE7040D
:1046800089C709476386E70869A00357E4FEBA872C
:104690008607BA9786071397070141838357E4FD7E
:1046A000BA9793960701C1828357E4FE032784FDDE
:1046B000BA97038707008357C4FD3A86BE853685BF
:1046C000EFF01FCC8357E4FE85072317F4FE91A07B
:1046D0008357E4FE8E071397070141838357E4FD58
:1046E000BA9793960701C1828357E4FE032784FD9E
:1046F000BA97038707008357C4FD3A86BE8536857F
:10470000EFF01FC88357E4FE85072317F4FE11A0BE
:1047100001008357E4FE032784FDBA9783870700CF
:10472000B9FB0100B250225445618280397106DE26
:1047300022DC8000AA872324C4FC36872317F4FCDC
:10474000AE872316F4FCBA87A303F4FC83D7418118
:104750000357E4FCB337F70093F7F70F3E871306D0
:10476000F026F567938507BC3A85EF10407E83D726
:1047700061810357C4FCB337F70093F7F70F3E8707
:1047800013060027F567938507BC3A85EF10207C58
:10479000834774FCB337F00093F7F70F3E87130697
:1047A0001027F567938507BC3A85EF10407A834759
:1047B00074FC93B7B70093F7F70F3E8713062027D3
:1047C000F567938507BC3A85EF106078832784FCF2
:1047D0002326F4FE85472324F4FE9307C4FD3146C7
:1047E00081453E85EFB0DFA1834774FC85073E8796
:1047F0009307C4FD3A86930500023E85EFB05FA0A3
:10480000034774FCA54763EBE70231A8032784FE46
:10481000BA878A07BA9786072324F4FE834774FC75
:10482000FD17A303F4FC834774FCEDF30327C4FED8
:10483000832784FEB367F7022326F4FE9307C4FDA3
:104840008325C4FE3E85EF20C0279306C4FD035791
:10485000C4FC8357E4FC3686BA853E85EFF07FDBE7
:104860000100F250625421618280397106DE22DC3F
:104870008000AA872724A4FC36872317F4FCAE8780
:104880002316F4FCB287A303F4FCBA872303F4FCD9
:1048900083D741810357E4FCB337F70093F7F70F51
:1048A0003E871306E02BF567938507BC3A85EF102A
:1048B000006A83D761810357C4FCB337F70093F7CD
:1048C000F70F3E871306F02BF567938507BC3A85F3
:1048D000EF10E067834774FCB337F00093F7F70FEE
:1048E0003E871306002CF567938507BC3A85EF10C9
:1048F0000066834774FC93B7970093F7F70F3E87E2
:104900001306102CF567938507BC3A85EF102064D9
:10491000834764FCB337F00093F7F70F3E87130625
:10492000202CF567938507BC3A85EF1040628347DA
:1049300064FC93B7770093F7F70F3E871306302C8C
:10494000F567938507BC3A85EF106060872784FC84
:104950002726F4FEF56787A707C22724F4FE9307EE
:1049600044FD454681453E85EFB09F89034774FC71
:10497000834764FCBA9789073E87930744FD3A86CC
:10498000930500023E85EFB0BF87034774FCA5473F
:1049900063EAE70439A8072784FEF56787A747C2BB
:1049A000D377F7102724F4FE834774FCFD17A30385
:1049B000F4FC834774FCE5F38727C4FE539707C0D4
:1049C000872784FED39707C0B347F70253F707D072
:1049D000872784FED377F7100727C4FED377F7081D
:1049E0002726F4FE034764FC930744FDBA85072598
:1049F000C4FE3E85EF20401E930644FD0357C4FCD1
:104A00008357E4FC3686BA853E85EFF09FC00100EF
:104A1000F2506254216182805D7186C6A2C4800812
:104A20002A8E2E832324C4FC3685BA853E86C28610
:104A30004687F2872317F4FC9A872316F4FCAA878B
:104A40002313F4FCAE872312F4FCB2872311F4FC89
:104A5000B6872310F4FCBA87A30FF4FA83D74181F9
:104A60000357E4FCB337F70093F7F70F3E871306BD
:104A7000F031F567938507BC3A85EF10404D83D739
:104A800061810357C4FCB337F70093F7F70F3E87F4
:104A900013060032F567938507BC3A85EF10204B6B
:104AA000832784FCB337F00093F7F70F3E87130694
:104AB0001032F567938507BC3A85EF1040492326ED
:104AC00004FE232404FE231304FE231204FE2320E9
:104AD00004FE232E04FC83A7C1A681EBB7070020A8
:104AE0009387C700DC474147D8CB0357E4FC835783
:104AF00024FCBA97C207C183FD17139607014182B0
:104B00000357C4FC835704FCBA97C207C183FD173F
:104B100093960701C1820357C4FC8357E4FCBA850E
:104B20003E85EFF0EFAE232404FE01A2035744FCC0
:104B3000832784FE3307F702835704FCB357F70239
:104B4000232EF4FC232604FEF1A0035764FC8327E4
:104B5000C4FE3307F702835724FCB357F702232020
:104B6000F4FE035764FC8327C4FD3307F702832751
:104B700004FEBA97032784FCBA9783C70700231261
:104B8000F4FE8347F4FBADE3835744FE8D83C207F5
:104B9000C183AE072313F4FE835744FE8983C20703
:104BA000C1839607C207C18793F7077E1397070152
:104BB0004187831764FED98FC207C1872313F4FE90
:104BC000835744FE8D83C207C183FD8B1397070172
:104BD0004183835764FED98F2313F4FE835764FE09
:104BE0003E85EFF04F9615A08347F4FBC207C183C3
:104BF000035744FE6376F7000145EFF0CF9431A0F0
:104C0000C1671385F7FFEFF00F948327C4FE850774
:104C10002326F4FE835724FC0327C4FEE367F7F240
:104C2000832784FE85072324F4FE835704FC03278F
:104C300084FEE36DF7EE83A7C1A681EBB7070020E2
:104C40009387C700DC47414798CB0100B640264414
:104C500061618280797106D622D40018232EA4FCCB
:104C60008327C4FDA5EF23A601A61307700223AC7A
:104C7000E1801307000623AEE1801308F00FC1673F
:104C8000F91705671307F70285669386D60237A6DC
:104C90004A041306062081450545EFD05F92C146C0
:104CA0000146854513057006EFC06FA183A781817A
:104CB000C146014685453E85EFC06FA0C14601460D
:104CC000854513054006EFC08F9F83A7C181C1466C
:104CD000054685453E85EFC08F9E65A0054723A606
:104CE000E1A61307700623ACE1801307000623AE8C
:104CF000E180C146054685451305D002EFC02F9CD3
:104D0000C146054685451305F002EFC04F9BC146DD
:104D10000546854513057002EFC06F9AC1460546EA
:104D2000854513057006EFC08F99C1460546854538
:104D300013054006EFC0AF98C146054685451305EB
:104D40000006EFC0CF97A30704FE930700F82307E0
:104D5000F4FEA30704FE0DA00347E4FE8347F4FE20
:104D6000BA97C146014685453E85EFC04F958347BA
:104D7000F4FE8507A307F4FE0347F4FE9D47E3FD19
:104D8000E7FC83A701A73E85EFF08FA803D7A1809A
:104D900083D7C180BE853A85EFF0EFABEFF0CF95BA
:104DA00083A7C181BD8B0547B317F7009396070111
:104DB000C18283A7C18113D75700B70700200A0714
:104DC0009387C700BA979C43368798CB83A7818186
:104DD000BD8B0547B317F70093960701C18283A7E0
:104DE000818113D75700B70700200A079387C700B0
:104DF000BA979C433687D8CB03A7C182896793872C
:104E000007F4B357F70295453E85EFB0CFDB83A794
:104E10008181BD8B0547B317F70093960701C182C7
:104E200083A7818113D75700B70700200A0793870C
:104E3000C700BA979C43368798CB03A7C18289677E
:104E4000938707F4B357F702930580073E85EFB0C9
:104E50008FD783A7C1A681EBB70700209387C70030
:104E6000DC474147D8CB4545EFE0DFD503A7C182FA
:104E70008967938707F4B357F702930580073E8548
:104E8000EFB06FD413056003EFE0DFD383A701A772
:104E900089E70145EFE09FE20DA803A701A7854739
:104EA0006317F7001305000CEFE05FE139A803A7D3
:104EB00001A789476317F70013050007EFE01FE01C
:104EC00029A01305000AEFE07FDF1305A003EFE040
:104ED0007FCF1545EFE09FDE1305200BEFE09FCE5F
:104EE0003145EFE0BFDD3145EFE05FDD0145EFE04B
:104EF000FFDC13053003EFE07FDC13053003EFE048
:104F0000FFDB1305700BEFE0FFCB13055003EFE061
:104F1000FFDA1305B00BEFE0FFCA13059002EFE0D4
:104F2000FFD91305200CEFE0FFC90545EFE01FD9BD
:104F30001305300CEFE01FC96545EFE03FD81305BE
:104F4000400CEFE03FC813050002EFE03FD7130528
:104F5000500CEFE03FC76945EFE05FD61305600CEA
:104F6000EFE05FC67D45EFE07FD51305000DEFE074
:104F70007FC51305400AEFE07FD41305100AEFE068
:104F8000FFD31305000EEFE0FFC31305000DEFE0A4
:104F9000FFD22145EFE09FD23945EFE03FD22545D2
:104FA000EFE0DFD12545EFE07FD11545EFE01FD1E0
:104FB00013051003EFE09FD013053003EFE01FD07F
:104FC00013058004EFE09FCF5D45EFE03FCF5145F3
:104FD000EFE0DFCE5545EFE07FCE13051003EFE0A5
:104FE000FFCD13054003EFE07FCD1305100EEFE07A
:104FF0007FBD1305000DEFE07FCC2145EFE01FCC16
:105000003945EFE0BFCB2545EFE05FCB2545EFE02D
:10501000FFCA5545EFE09FCA13051003EFE01FCA12
:1050200013053003EFE09FC913058004EFE01FC9AB
:105030005D45EFE0BFC85145EFE05FC85545EFE083
:10504000FFC713051003EFE07FC713054003EFE030
:10505000FFC613051002EFE0FFB613059002EFE064
:105060007FB683A7C1A681EBB70700209387C7004F
:10507000DC47414798CBEFE01FF00100B2502254CB
:1050800045618280397106DE22DC80002326A4FC83
:105090008547A307F4FE231604FE232404FE232ED3
:1050A00004FC83D7C1A73E87930700236316F7004C
:1050B000A5472324F4FE29A0A1472324F4FE0100E0
:1050C00049A0930750FA2300F4FE832784FE8A0741
:1050D0000327C4FCBA978397070093F7F70FA30041
:1050E000F4FE832784FE8A070327C4FCBA978397BC
:1050F00027002313F4FE835764FEA183C207C183F4
:1051000093F7F70F2301F4FE835764FE93F7F70F2D
:10511000A301F4FE930704FE1146BE851145EFD0AE
:105120001FC903A7C1828967938707F4B357F702A2
:1051300089453E85EFB02FA9832784FEFD172324E0
:10514000F4FE032784FE9307E00FE3FCE7F61385E4
:1051500081BCEF10A0192A87894763FFE7028D47BA
:10516000232EF4FC1307C4FD930704FE81463A8600
:10517000BE85138581BCEF10605D034714FE930765
:10518000F00F6308F700034724FE9307F00F631541
:10519000F700A30704FE35A003A7C18289679387A0
:1051A00007F4B357F70285453E85EFB0CFA183578B
:1051B000C4FE138717002316E4FE1307F007E378F5
:1051C000F7F88347F4FE3E85F250625421618280F5
:1051D000397106DE22DC80002326A4FCA30704FE2E
:1051E000231604FE232404FE232E04FC83D7C1A728
:1051F0003E87930700236316F700A5472324F4FE98
:1052000029A0A1472324F4FE0100832784FEFD1773
:105210002324F4FE29AA03D7C1A79307F02263ED44
:10522000E700832784FE8A070327C4FCBA97039705
:105230000700A5476307F70E930750FA2300F4FE13
:10524000C557A300F4FE832784FE8A070327C4FC06
:10525000BA97839707002313F4FE835764FEA18354
:10526000C207C18393F7F70F2301F4FE835764FE4F
:1052700093F7F70FA301F4FE930704FE1146BE85D2
:105280001145EFD0DFB2231604FE138581BCEF1069
:10529000E0052A87894763F7E7048D47232EF4FC4E
:1052A0001307C4FD930704FE81463A86BE85138525
:1052B00081BCEF10A049834714FEA2079396070113
:1052C000C186834724FE139707014187832784FE05
:1052D0008A070326C4FCB297558F42074187239162
:1052E000E70035A003A7C1828967938707F4B35706
:1052F000F70285453E85EFB00F8D8357C4FE1387B7
:1053000017002316E4FE1307F007E370F7F80357BE
:10531000C4FE9307000863F7E7008547A307F4FE80
:1053200019A80100832784FEFD172324F4FE832798
:1053300084FEE39207EE8347F4FE3E85F25062540A
:1053400021618280011106CE22CC0010A30704FE49
:105350009307F4FEBE851145EFD0FFB90347F4FE75
:105360009307500A6316F700138581BCEF0010689D
:105370008347F4FEBE85138581BCEF00707B01007E
:10538000F240624405618280411122C6000805474F
:10539000238AE1A60100324441018280011106CE38
:1053A00022CC0010231704FE231604FE232004FE43
:1053B000930750FA2302F4FEC557A302F4FE9307A5
:1053C000200F2315F4FE8357A4FEA183C207C183D7
:1053D00093F7F70F2303F4FE8357A4FE93F7F70F19
:1053E000A303F4FE930744FE1146BE851145EFD09A
:1053F0001F9C138581BCEF00706F2A87894763F07B
:10540000E7048D472320F4FE130704FE930744FEB0
:1054100081463A86BE85138581BCEF1020338347D1
:1054200054FEA207139707014187834764FEC20712
:10543000C187D98FC207C1872316F4FE35A003A701
:10544000C1828967938707F4B357F70285453E8584
:10545000EFA07FF78357E4FE138717002317E4FEBE
:105460001307F007E377F7F88357C4FE3E85F24051
:10547000624405618280397106DE22DC8000A30768
:1054800004FE054723ACE1A69307C4FD1307C0043F
:10549000930620061306401F81453E85EFC0FFCFCF
:1054A00003A7C1828967938707F4B357F70293056F
:1054B000800C3E85EFA03FF11307C4FDB707002025
:1054C000938507023A85EF000141AA876388070C9C
:1054D00023AC01A691679386270691671386C704BC
:1054E0008967938507581145EFD0DFA6854511459B
:1054F000EFD03F9803A7C1828967938707F4B3571A
:10550000F7029305800C3E85EFA0FFEBB757000034
:1055100013868738B7570000938547340D45C52853
:10552000EFD0BFFDEFF09FE7AA873E87239EE1A65D
:10553000B707002013850702EFF0DFB4AA8785C7FD
:105540009306701BF567138687C2F5679385C7C8F6
:105550000145EF0050260146814501454D2885470C
:10556000A307F4FE25A8B707002013858704EFF0F2
:105570003FC6AA8785C79306301CF567138687C286
:10558000F567938587CA0145EF00F0220146814502
:105590000145B5288547A307F4FE0100B757000071
:1055A00013868738B7570000938547340D4585200B
:1055B00091473EC495473EC299473EC0930890022A
:1055C00013088002930760021307B0049306900447
:1055D00013068004A9452545EFA09FE885469967F5
:1055E000138607828145B76700201385077FEFA0E8
:1055F000BFF88347F4FE3E85F250625421618280F9
:10560000411122C60008010032444101828001118B
:1056100022CE00102326A4FE2324B4FE2322C4FE9F
:105620000327C4FE23A0E1A8832744FE81C7832764
:1056300044FE29A0B75700009387076023A2F18298
:10564000832784FE81C7832784FE29A0B7570000E3
:105650009387076023A0F182010072440561828074
:10566000411122C60008B71702409843B7170240FD
:105670001367170098C3B7170240D443B717024007
:105680003707FFF8758FD8C3B71702409443B71791
:1056900002403707F7FE7D17758F98C3B717024092
:1056A0009443B71702403707FCFF7D17758F98C3E7
:1056B000B7170240D443B7170240370781FF7D1761
:1056C000758FD8C3B717024037079F0098C70100EE
:1056D000324441018280797122D60018232EA4FC25
:1056E000232604FE232404FEB71702409443B71771
:1056F00002404167558F98C3B71702409843B707D8
:105700000200F98F2324F4FE8327C4FE8507232695
:10571000F4FE832784FE91E70327C4FE8567E31D1B
:10572000F7FCB71702409843B7070200F98F89C703
:1057300085472324F4FE19A0232404FE032784FEB6
:1057400085476312F71637170240B71702405843D0
:10575000D8C337170240B71702405843D8C337178A
:105760000240B71702405843D8C3B7170240D4438A
:10577000B71702403707C1FF7D17758FD8C30327BE
:10578000C4FDB747950893870740631BF700B71719
:105790000240D443B71702404167558FD8C355A87C
:1057A0000327C4FDB7172707938707E0631CF7009B
:1057B000B7170240D443B717024037073900558F57
:1057C000D8C341A80327C4FDB7E7B805938707806E
:1057D000631CF700B7170240D443B71702403707DE
:1057E0002900558FD8C3B5A00327C4FDB7A74A0425
:1057F00093870720631CF700B7170240D443B717FD
:10580000024037071D00558FD8C3A1A00327C4FD50
:10581000B777DC02938707C0631CF700B717024015
:10582000D443B717024037071100558FD8C315A0CE
:105830000327C4FDB7376E0193870760631BF7002A
:10584000B7170240D443B717024037070500558FFA
:10585000D8C3B71702409443B71702403707000177
:10586000558F98C30100B71702409843B70700024D
:10587000F98FF5DBB7170240D843B7170240719B89
:10588000D8C3B7170240D843B717024013672700A1
:10589000D8C30100B7170240DC4313F7C700A14784
:1058A000E31AF7FE11A001A0325445618280011174
:1058B00006CE22CC00102326A4FE0327C4FE23A676
:1058C000E182EFF0FFD90325C4FEEFF0DFE0EF1037
:1058D000806E0100F240624405618280411122C65F
:1058E000000801000100324441018280011106CE0E
:1058F00022CC0010232604FE232404FE232604FECB
:105900002DA0232404FE01A8EFF05FFD832784FE71
:1059100085072324F4FE032784FEC167E366F7FEB0
:105920008327C4FE85072326F4FE0327C4FE9307BE
:10593000F00FE3F8E7FC0100F24062440561828069
:10594000411122C600080100324441018280011148
:1059500006CE22CC00102326A4FE8325C4FE0945D2
:10596000EFD02FCB0100F240624405618280130129
:1059700001D9232611262324812623229126801C47
:10598000232EA4D8232CB4D8232AC4D82328D4D88F
:10599000231504FE231404FE231304FE231204FE25
:1059A000231104FE032584D9EF40C128AA87C2072A
:1059B000C1872313F4FEB7C7002083D7070199C717
:1059C000B7C70020938707019C4B829783C741A8E4
:1059D00093F7F70F6385074EB7C7002083D70701FA
:1059E00063890746B7C7002093870701D4478357C9
:1059F00024FE13970701418793170701C183850789
:105A0000C207C183C207C1872311F4FE93170701A0
:105A1000C1830326C4D9BE8501458296832784D9D4
:105A20002326F4FE032584D9EF40C120AA87C207AC
:105A3000C1872313F4FEB7C700209387070183D7DC
:105A400027003E87B7C700209387070183C76700F9
:105A5000B347F702C207C1872312F4FE0100832770
:105A6000C4FE138717002326E4FE83870700E5FBA7
:105A7000231404FEA1A88327C4FEFD172326F4FEE9
:105A80008327C4FE038707009307F002630AF70029
:105A90008327C4FE038707009307C005631BF70035
:105AA000835784FEC207C1838507C207C1832314BD
:105AB000F4FE835764FEC207C187C207C183FD1786
:105AC000C207C183C207C1872313F4FE835784FE34
:105AD000139707014183854763E8E700835764FE16
